{
  "_format": "hh-sol-artifact-1",
  "contractName": "SkillRegistry",
  "sourceName": "src/SkillRegistry.sol",
  "abi": [
    {
      "inputs": [],
      "stateMutability": "nonpayable",
      "type": "constructor"
    },
    {
      "anonymous": false,
      "inputs": [
        {
          "indexed": true,
          "internalType": "uint256",
          "name": "skillId",
          "type": "uint256"
        },
        {
          "indexed": true,
          "internalType": "address",
          "name": "buyer",
          "type": "address"
        },
        {
          "indexed": false,
          "internalType": "uint256",
          "name": "timestamp",
          "type": "uint256"
        }
      ],
      "name": "PurchaseRecorded",
      "type": "event"
    },
    {
      "anonymous": false,
      "inputs": [
        {
          "indexed": true,
          "internalType": "uint256",
          "name": "id",
          "type": "uint256"
        }
      ],
      "name": "SkillDeactivated",
      "type": "event"
    },
    {
      "anonymous": false,
      "inputs": [
        {
          "indexed": true,
          "internalType": "uint256",
          "name": "id",
          "type": "uint256"
        },
        {
          "indexed": false,
          "internalType": "string",
          "name": "name",
          "type": "string"
        },
        {
          "indexed": false,
          "internalType": "string",
          "name": "cid",
          "type": "string"
        },
        {
          "indexed": true,
          "internalType": "address",
          "name": "creator",
          "type": "address"
        },
        {
          "indexed": false,
          "internalType": "uint256",
          "name": "price",
          "type": "uint256"
        }
      ],
      "name": "SkillRegistered",
      "type": "event"
    },
    {
      "anonymous": false,
      "inputs": [
        {
          "indexed": true,
          "internalType": "uint256",
          "name": "id",
          "type": "uint256"
        },
        {
          "indexed": false,
          "internalType": "string",
          "name": "newCid",
          "type": "string"
        },
        {
          "indexed": false,
          "internalType": "string",
          "name": "newVersion",
          "type": "string"
        }
      ],
      "name": "SkillUpdated",
      "type": "event"
    },
    {
      "inputs": [
        {
          "internalType": "string",
          "name": "",
          "type": "string"
        }
      ],
      "name": "cidRegistered",
      "outputs": [
        {
          "internalType": "bool",
          "name": "",
          "type": "bool"
        }
      ],
      "stateMutability": "view",
      "type": "function"
    },
    {
      "inputs": [
        {
          "internalType": "uint256",
          "name": "skillId",
          "type": "uint256"
        }
      ],
      "name": "deactivateSkill",
      "outputs": [],
      "stateMutability": "nonpayable",
      "type": "function"
    },
    {
      "inputs": [
        {
          "internalType": "uint256",
          "name": "skillId",
          "type": "uint256"
        }
      ],
      "name": "getSkill",
      "outputs": [
        {
          "components": [
            {
              "internalType": "uint256",
              "name": "id",
              "type": "uint256"
            },
            {
              "internalType": "string",
              "name": "name",
              "type": "string"
            },
            {
              "internalType": "string",
              "name": "cid",
              "type": "string"
            },
            {
              "internalType": "address",
              "name": "creator",
              "type": "address"
            },
            {
              "internalType": "uint256",
              "name": "price",
              "type": "uint256"
            },
            {
              "internalType": "string",
              "name": "version",
              "type": "string"
            },
            {
              "internalType": "uint256",
              "name": "createdAt",
              "type": "uint256"
            },
            {
              "internalType": "bool",
              "name": "active",
              "type": "bool"
            }
          ],
          "internalType": "struct SkillRegistry.SkillInfo",
          "name": "",
          "type": "tuple"
        }
      ],
      "stateMutability": "view",
      "type": "function"
    },
    {
      "inputs": [
        {
          "internalType": "string",
          "name": "name",
          "type": "string"
        }
      ],
      "name": "getSkillByName",
      "outputs": [
        {
          "components": [
            {
              "internalType": "uint256",
              "name": "id",
              "type": "uint256"
            },
            {
              "internalType": "string",
              "name": "name",
              "type": "string"
            },
            {
              "internalType": "string",
              "name": "cid",
              "type": "string"
            },
            {
              "internalType": "address",
              "name": "creator",
              "type": "address"
            },
            {
              "internalType": "uint256",
              "name": "price",
              "type": "uint256"
            },
            {
              "internalType": "string",
              "name": "version",
              "type": "string"
            },
            {
              "internalType": "uint256",
              "name": "createdAt",
              "type": "uint256"
            },
            {
              "internalType": "bool",
              "name": "active",
              "type": "bool"
            }
          ],
          "internalType": "struct SkillRegistry.SkillInfo",
          "name": "",
          "type": "tuple"
        }
      ],
      "stateMutability": "view",
      "type": "function"
    },
    {
      "inputs": [],
      "name": "owner",
      "outputs": [
        {
          "internalType": "address",
          "name": "",
          "type": "address"
        }
      ],
      "stateMutability": "view",
      "type": "function"
    },
    {
      "inputs": [
        {
          "internalType": "uint256",
          "name": "skillId",
          "type": "uint256"
        },
        {
          "internalType": "address",
          "name": "buyer",
          "type": "address"
        }
      ],
      "name": "recordPurchase",
      "outputs": [],
      "stateMutability": "nonpayable",
      "type": "function"
    },
    {
      "inputs": [
        {
          "internalType": "string",
          "name": "name",
          "type": "string"
        },
        {
          "internalType": "string",
          "name": "cid",
          "type": "string"
        },
        {
          "internalType": "uint256",
          "name": "price",
          "type": "uint256"
        },
        {
          "internalType": "string",
          "name": "version",
          "type": "string"
        }
      ],
      "name": "registerSkill",
      "outputs": [
        {
          "internalType": "uint256",
          "name": "",
          "type": "uint256"
        }
      ],
      "stateMutability": "nonpayable",
      "type": "function"
    },
    {
      "inputs": [
        {
          "internalType": "uint256",
          "name": "",
          "type": "uint256"
        }
      ],
      "name": "skills",
      "outputs": [
        {
          "internalType": "uint256",
          "name": "id",
          "type": "uint256"
        },
        {
          "internalType": "string",
          "name": "name",
          "type": "string"
        },
        {
          "internalType": "string",
          "name": "cid",
          "type": "string"
        },
        {
          "internalType": "address",
          "name": "creator",
          "type": "address"
        },
        {
          "internalType": "uint256",
          "name": "price",
          "type": "uint256"
        },
        {
          "internalType": "string",
          "name": "version",
          "type": "string"
        },
        {
          "internalType": "uint256",
          "name": "createdAt",
          "type": "uint256"
        },
        {
          "internalType": "bool",
          "name": "active",
          "type": "bool"
        }
      ],
      "stateMutability": "view",
      "type": "function"
    },
    {
      "inputs": [
        {
          "internalType": "string",
          "name": "",
          "type": "string"
        }
      ],
      "name": "skillsByName",
      "outputs": [
        {
          "internalType": "uint256",
          "name": "",
          "type": "uint256"
        }
      ],
      "stateMutability": "view",
      "type": "function"
    },
    {
      "inputs": [],
      "name": "totalSkills",
      "outputs": [
        {
          "internalType": "uint256",
          "name": "",
          "type": "uint256"
        }
      ],
      "stateMutability": "view",
      "type": "function"
    },
    {
      "inputs": [
        {
          "internalType": "uint256",
          "name": "skillId",
          "type": "uint256"
        },
        {
          "internalType": "string",
          "name": "newCid",
          "type": "string"
        },
        {
          "internalType": "string",
          "name": "newVersion",
          "type": "string"
        }
      ],
      "name": "updateSkill",
      "outputs": [],
      "stateMutability": "nonpayable",
      "type": "function"
    }
  ],
  "bytecode": "0x608060405234801561000f575f80fd5b50600480546001600160a01b031916331790556117c18061002f5f395ff3fe608060405234801561000f575f80fd5b50600436106100a6575f3560e01c80639b4a14561161006e5780639b4a14561461015b578063ad116f7b14610186578063bd880fae14610199578063d3dea09b146101ac578063db7be76c146101ea578063f6e294e0146101f3575f80fd5b80631829c3fc146100aa57806338565241146100bf57806350d15fbe146100e85780638da5cb5b1461010f5780639340a1bb1461013a575b5f80fd5b6100bd6100b8366004611049565b610206565b005b6100d26100cd3660046110c7565b610341565b6040516100df9190611149565b60405180910390f35b6100fb6100f63660046111fc565b6105c2565b6040516100df989796959493929190611213565b600454610122906001600160a01b031681565b6040516001600160a01b0390911681526020016100df565b61014d610148366004611287565b6107a6565b6040519081526020016100df565b61014d610169366004611337565b805160208183018101805160018252928201919093012091525481565b6100bd6101943660046113e2565b610b3e565b6100d26101a73660046111fc565b610d48565b6101da6101ba366004611337565b805160208183018101805160028252928201919093012091525460ff1681565b60405190151581526020016100df565b61014d60035481565b6100bd6102013660046111fc565b610f62565b6004546001600160a01b031633146102525760405162461bcd60e51b815260206004820152600a60248201526927b7363c9037bbb732b960b11b60448201526064015b60405180910390fd5b5f8211801561026357506003548211155b6102a25760405162461bcd60e51b815260206004820152601060248201526f125b9d985b1a59081cdada5b1b08125160821b6044820152606401610249565b5f8281526020819052604090206007015460ff166102f95760405162461bcd60e51b815260206004820152601460248201527314dada5b1b081a5cc819195858dd1a5d985d195960621b6044820152606401610249565b806001600160a01b0316827ff9cfdb581848f49f8234b12f71a1750070663f60ca5446ae62cc3cd97a3760b44260405161033591815260200190565b60405180910390a35050565b610349610ffe565b5f6001848460405161035c929190611456565b90815260200160405180910390205490505f81116103ae5760405162461bcd60e51b815260206004820152600f60248201526e14dada5b1b081b9bdd08199bdd5b99608a1b6044820152606401610249565b5f8181526020818152604091829020825161010081019093528054835260018101805491928401916103df90611465565b80601f016020809104026020016040519081016040528092919081815260200182805461040b90611465565b80156104565780601f1061042d57610100808354040283529160200191610456565b820191905f5260205f20905b81548152906001019060200180831161043957829003601f168201915b5050505050815260200160028201805461046f90611465565b80601f016020809104026020016040519081016040528092919081815260200182805461049b90611465565b80156104e65780601f106104bd576101008083540402835291602001916104e6565b820191905f5260205f20905b8154815290600101906020018083116104c957829003601f168201915b505050918352505060038201546001600160a01b031660208201526004820154604082015260058201805460609092019161052090611465565b80601f016020809104026020016040519081016040528092919081815260200182805461054c90611465565b80156105975780601f1061056e57610100808354040283529160200191610597565b820191905f5260205f20905b81548152906001019060200180831161057a57829003601f168201915b50505091835250506006820154602082015260079091015460ff161515604090910152949350505050565b5f60208190529081526040902080546001820180549192916105e390611465565b80601f016020809104026020016040519081016040528092919081815260200182805461060f90611465565b801561065a5780601f106106315761010080835404028352916020019161065a565b820191905f5260205f20905b81548152906001019060200180831161063d57829003601f168201915b50505050509080600201805461066f90611465565b80601f016020809104026020016040519081016040528092919081815260200182805461069b90611465565b80156106e65780601f106106bd576101008083540402835291602001916106e6565b820191905f5260205f20905b8154815290600101906020018083116106c957829003601f168201915b505050506003830154600484015460058501805494956001600160a01b03909316949193509061071590611465565b80601f016020809104026020016040519081016040528092919081815260200182805461074190611465565b801561078c5780601f106107635761010080835404028352916020019161078c565b820191905f5260205f20905b81548152906001019060200180831161076f57829003601f168201915b50505050600683015460079093015491929160ff16905088565b5f866107e45760405162461bcd60e51b815260206004820152600d60248201526c13985b59481c995c5d5a5c9959609a1b6044820152606401610249565b846108205760405162461bcd60e51b815260206004820152600c60248201526b10d251081c995c5d5a5c995960a21b6044820152606401610249565b60018888604051610832929190611456565b9081526020016040518091039020545f1461088f5760405162461bcd60e51b815260206004820152601760248201527f4e616d6520616c726561647920726567697374657265640000000000000000006044820152606401610249565b600286866040516108a1929190611456565b9081526040519081900360200190205460ff16156108fa5760405162461bcd60e51b815260206004820152601660248201527510d25108185b1c9958591e481c9959da5cdd195c995960521b6044820152606401610249565b60038054905f6109098361149d565b91905055505f60035490506040518061010001604052808281526020018a8a8080601f0160208091040260200160405190810160405280939291908181526020018383808284375f92019190915250505090825250604080516020601f8b0181900481028201810190925289815291810191908a908a90819084018382808284375f920191909152505050908252503360208083019190915260408083018990528051601f88018390048302810183019091528681526060909201919087908790819084018382808284375f920182905250938552505042602080850191909152600160409485018190528684528382529390922084518155918401519192830191610a1691508261150d565b5060408201516002820190610a2b908261150d565b5060608201516003820180546001600160a01b0319166001600160a01b039092169190911790556080820151600482015560a08201516005820190610a70908261150d565b5060c0820151600682015560e0909101516007909101805460ff19169115159190911790556040518190600190610aaa908c908c90611456565b908152602001604051809103902081905550600160028888604051610ad0929190611456565b908152604051908190036020018120805492151560ff1990931692909217909155339082907f2b2230691d8a3b304cc4175cfbf56cded93a594cae3dd1ea3db917c25ac8673090610b2a908d908d908d908d908d906115f5565b60405180910390a398975050505050505050565b5f8581526020819052604090206003015485906001600160a01b03163314610b975760405162461bcd60e51b815260206004820152600c60248201526b27b7363c9031b932b0ba37b960a11b6044820152606401610249565b5f8681526020819052604090206007015460ff16610bee5760405162461bcd60e51b815260206004820152601460248201527314dada5b1b081a5cc819195858dd1a5d985d195960621b6044820152606401610249565b60028585604051610c00929190611456565b9081526040519081900360200190205460ff1615610c595760405162461bcd60e51b815260206004820152601660248201527510d25108185b1c9958591e481c9959da5cdd195c995960521b6044820152606401610249565b5f868152602081905260408082209051600291610c79919083019061162e565b908152604051908190036020018120805492151560ff1990931692909217909155600190600290610cad9088908890611456565b9081526040805160209281900383019020805460ff1916931515939093179092555f8881529081905220600201610ce58587836116a0565b505f868152602081905260409020600501610d018385836116a0565b50857f7767d27804bf012cdd8e60422ebd4f2e58e633539111b9504a9ba8f48407e2bf86868686604051610d38949392919061175a565b60405180910390a2505050505050565b610d50610ffe565b5f828152602081815260409182902082516101008101909352805483526001810180549192840191610d8190611465565b80601f0160208091040260200160405190810160405280929190818152602001828054610dad90611465565b8015610df85780601f10610dcf57610100808354040283529160200191610df8565b820191905f5260205f20905b815481529060010190602001808311610ddb57829003601f168201915b50505050508152602001600282018054610e1190611465565b80601f0160208091040260200160405190810160405280929190818152602001828054610e3d90611465565b8015610e885780601f10610e5f57610100808354040283529160200191610e88565b820191905f5260205f20905b815481529060010190602001808311610e6b57829003601f168201915b505050918352505060038201546001600160a01b0316602082015260048201546040820152600582018054606090920191610ec290611465565b80601f0160208091040260200160405190810160405280929190818152602001828054610eee90611465565b8015610f395780601f10610f1057610100808354040283529160200191610f39565b820191905f5260205f20905b815481529060010190602001808311610f1c57829003601f168201915b50505091835250506006820154602082015260079091015460ff16151560409091015292915050565b5f8181526020819052604090206003015481906001600160a01b03163314610fbb5760405162461bcd60e51b815260206004820152600c60248201526b27b7363c9031b932b0ba37b960a11b6044820152606401610249565b5f82815260208190526040808220600701805460ff191690555183917fe5dd40ca0de2c3e7ebaebe2f9e8ffc4e449edfbffacddc39b61100d3de7c073b91a25050565b6040518061010001604052805f815260200160608152602001606081526020015f6001600160a01b031681526020015f8152602001606081526020015f81526020015f151581525090565b5f806040838503121561105a575f80fd5b8235915060208301356001600160a01b0381168114611077575f80fd5b809150509250929050565b5f8083601f840112611092575f80fd5b50813567ffffffffffffffff8111156110a9575f80fd5b6020830191508360208285010111156110c0575f80fd5b9250929050565b5f80602083850312156110d8575f80fd5b823567ffffffffffffffff8111156110ee575f80fd5b6110fa85828601611082565b90969095509350505050565b5f81518084525f5b8181101561112a5760208185018101518683018201520161110e565b505f602082860101526020601f19601f83011685010191505092915050565b60208152815160208201525f6020830151610100806040850152611171610120850183611106565b91506040850151601f198086850301606087015261118f8483611106565b9350606087015191506111ad60808701836001600160a01b03169052565b608087015160a087015260a08701519150808685030160c0870152506111d38382611106565b92505060c085015160e085015260e08501516111f28286018215159052565b5090949350505050565b5f6020828403121561120c575f80fd5b5035919050565b5f6101008a835280602084015261122c8184018b611106565b90508281036040840152611240818a611106565b6001600160a01b03891660608501526080840188905283810360a0850152905061126a8187611106565b60c0840195909552505090151560e0909101529695505050505050565b5f805f805f805f6080888a03121561129d575f80fd5b873567ffffffffffffffff808211156112b4575f80fd5b6112c08b838c01611082565b909950975060208a01359150808211156112d8575f80fd5b6112e48b838c01611082565b909750955060408a0135945060608a0135915080821115611303575f80fd5b506113108a828b01611082565b989b979a50959850939692959293505050565b634e487b7160e01b5f52604160045260245ffd5b5f60208284031215611347575f80fd5b813567ffffffffffffffff8082111561135e575f80fd5b818401915084601f830112611371575f80fd5b81358181111561138357611383611323565b604051601f8201601f19908116603f011681019083821181831017156113ab576113ab611323565b816040528281528760208487010111156113c3575f80fd5b826020860160208301375f928101602001929092525095945050505050565b5f805f805f606086880312156113f6575f80fd5b85359450602086013567ffffffffffffffff80821115611414575f80fd5b61142089838a01611082565b90965094506040880135915080821115611438575f80fd5b5061144588828901611082565b969995985093965092949392505050565b818382375f9101908152919050565b600181811c9082168061147957607f821691505b60208210810361149757634e487b7160e01b5f52602260045260245ffd5b50919050565b5f600182016114ba57634e487b7160e01b5f52601160045260245ffd5b5060010190565b601f82111561150857805f5260205f20601f840160051c810160208510156114e65750805b601f840160051c820191505b81811015611505575f81556001016114f2565b50505b505050565b815167ffffffffffffffff81111561152757611527611323565b61153b816115358454611465565b846114c1565b602080601f83116001811461156e575f84156115575750858301515b5f19600386901b1c1916600185901b1785556115c5565b5f85815260208120601f198616915b8281101561159c5788860151825594840194600190910190840161157d565b50858210156115b957878501515f19600388901b60f8161c191681555b505060018460011b0185555b505050505050565b81835281816020850137505f828201602090810191909152601f909101601f19169091010190565b606081525f6116086060830187896115cd565b828103602084015261161b8186886115cd565b9150508260408301529695505050505050565b5f80835461163b81611465565b60018281168015611653576001811461166857611694565b60ff1984168752821515830287019450611694565b875f526020805f205f5b8581101561168b5781548a820152908401908201611672565b50505082870194505b50929695505050505050565b67ffffffffffffffff8311156116b8576116b8611323565b6116cc836116c68354611465565b836114c1565b5f601f8411600181146116fd575f85156116e65750838201355b5f19600387901b1c1916600186901b178355611505565b5f83815260208120601f198716915b8281101561172c578685013582556020948501946001909201910161170c565b5086821015611748575f1960f88860031b161c19848701351681555b505060018560011b0183555050505050565b604081525f61176d6040830186886115cd565b82810360208401526117808185876115cd565b97965050505050505056fea2646970667358221220bd2c4c32b307df7233b1c3ab0688a789923111923aef4d782b7d7a259fce891664736f6c63430008180033",
  "linkReferences": {},
  "deployedLinkReferences": {}
}