{
  "_format": "hh-sol-artifact-1",
  "contractName": "SkillLicenseNFT",
  "sourceName": "src/SkillLicenseNFT.sol",
  "abi": [
    {
      "inputs": [],
      "stateMutability": "nonpayable",
      "type": "constructor"
    },
    {
      "inputs": [],
      "name": "ERC721EnumerableForbiddenBatchMint",
      "type": "error"
    },
    {
      "inputs": [
        {
          "internalType": "address",
          "name": "sender",
          "type": "address"
        },
        {
          "internalType": "uint256",
          "name": "tokenId",
          "type": "uint256"
        },
        {
          "internalType": "address",
          "name": "owner",
          "type": "address"
        }
      ],
      "name": "ERC721IncorrectOwner",
      "type": "error"
    },
    {
      "inputs": [
        {
          "internalType": "address",
          "name": "operator",
          "type": "address"
        },
        {
          "internalType": "uint256",
          "name": "tokenId",
          "type": "uint256"
        }
      ],
      "name": "ERC721InsufficientApproval",
      "type": "error"
    },
    {
      "inputs": [
        {
          "internalType": "address",
          "name": "approver",
          "type": "address"
        }
      ],
      "name": "ERC721InvalidApprover",
      "type": "error"
    },
    {
      "inputs": [
        {
          "internalType": "address",
          "name": "operator",
          "type": "address"
        }
      ],
      "name": "ERC721InvalidOperator",
      "type": "error"
    },
    {
      "inputs": [
        {
          "internalType": "address",
          "name": "owner",
          "type": "address"
        }
      ],
      "name": "ERC721InvalidOwner",
      "type": "error"
    },
    {
      "inputs": [
        {
          "internalType": "address",
          "name": "receiver",
          "type": "address"
        }
      ],
      "name": "ERC721InvalidReceiver",
      "type": "error"
    },
    {
      "inputs": [
        {
          "internalType": "address",
          "name": "sender",
          "type": "address"
        }
      ],
      "name": "ERC721InvalidSender",
      "type": "error"
    },
    {
      "inputs": [
        {
          "internalType": "uint256",
          "name": "tokenId",
          "type": "uint256"
        }
      ],
      "name": "ERC721NonexistentToken",
      "type": "error"
    },
    {
      "inputs": [
        {
          "internalType": "address",
          "name": "owner",
          "type": "address"
        },
        {
          "internalType": "uint256",
          "name": "index",
          "type": "uint256"
        }
      ],
      "name": "ERC721OutOfBoundsIndex",
      "type": "error"
    },
    {
      "inputs": [
        {
          "internalType": "address",
          "name": "owner",
          "type": "address"
        }
      ],
      "name": "OwnableInvalidOwner",
      "type": "error"
    },
    {
      "inputs": [
        {
          "internalType": "address",
          "name": "account",
          "type": "address"
        }
      ],
      "name": "OwnableUnauthorizedAccount",
      "type": "error"
    },
    {
      "anonymous": false,
      "inputs": [
        {
          "indexed": true,
          "internalType": "address",
          "name": "owner",
          "type": "address"
        },
        {
          "indexed": true,
          "internalType": "address",
          "name": "approved",
          "type": "address"
        },
        {
          "indexed": true,
          "internalType": "uint256",
          "name": "tokenId",
          "type": "uint256"
        }
      ],
      "name": "Approval",
      "type": "event"
    },
    {
      "anonymous": false,
      "inputs": [
        {
          "indexed": true,
          "internalType": "address",
          "name": "owner",
          "type": "address"
        },
        {
          "indexed": true,
          "internalType": "address",
          "name": "operator",
          "type": "address"
        },
        {
          "indexed": false,
          "internalType": "bool",
          "name": "approved",
          "type": "bool"
        }
      ],
      "name": "ApprovalForAll",
      "type": "event"
    },
    {
      "anonymous": false,
      "inputs": [
        {
          "indexed": true,
          "internalType": "uint256",
          "name": "tokenId",
          "type": "uint256"
        },
        {
          "indexed": true,
          "internalType": "uint256",
          "name": "skillId",
          "type": "uint256"
        },
        {
          "indexed": false,
          "internalType": "string",
          "name": "skillName",
          "type": "string"
        },
        {
          "indexed": true,
          "internalType": "address",
          "name": "buyer",
          "type": "address"
        }
      ],
      "name": "LicenseMinted",
      "type": "event"
    },
    {
      "anonymous": false,
      "inputs": [
        {
          "indexed": true,
          "internalType": "address",
          "name": "oldMinter",
          "type": "address"
        },
        {
          "indexed": true,
          "internalType": "address",
          "name": "newMinter",
          "type": "address"
        }
      ],
      "name": "MinterUpdated",
      "type": "event"
    },
    {
      "anonymous": false,
      "inputs": [
        {
          "indexed": true,
          "internalType": "address",
          "name": "previousOwner",
          "type": "address"
        },
        {
          "indexed": true,
          "internalType": "address",
          "name": "newOwner",
          "type": "address"
        }
      ],
      "name": "OwnershipTransferred",
      "type": "event"
    },
    {
      "anonymous": false,
      "inputs": [
        {
          "indexed": true,
          "internalType": "address",
          "name": "from",
          "type": "address"
        },
        {
          "indexed": true,
          "internalType": "address",
          "name": "to",
          "type": "address"
        },
        {
          "indexed": true,
          "internalType": "uint256",
          "name": "tokenId",
          "type": "uint256"
        }
      ],
      "name": "Transfer",
      "type": "event"
    },
    {
      "inputs": [
        {
          "internalType": "address",
          "name": "to",
          "type": "address"
        },
        {
          "internalType": "uint256",
          "name": "tokenId",
          "type": "uint256"
        }
      ],
      "name": "approve",
      "outputs": [],
      "stateMutability": "nonpayable",
      "type": "function"
    },
    {
      "inputs": [
        {
          "internalType": "address",
          "name": "owner",
          "type": "address"
        }
      ],
      "name": "balanceOf",
      "outputs": [
        {
          "internalType": "uint256",
          "name": "",
          "type": "uint256"
        }
      ],
      "stateMutability": "view",
      "type": "function"
    },
    {
      "inputs": [
        {
          "internalType": "uint256",
          "name": "tokenId",
          "type": "uint256"
        }
      ],
      "name": "getApproved",
      "outputs": [
        {
          "internalType": "address",
          "name": "",
          "type": "address"
        }
      ],
      "stateMutability": "view",
      "type": "function"
    },
    {
      "inputs": [
        {
          "internalType": "uint256",
          "name": "tokenId",
          "type": "uint256"
        }
      ],
      "name": "getLicense",
      "outputs": [
        {
          "components": [
            {
              "internalType": "uint256",
              "name": "skillId",
              "type": "uint256"
            },
            {
              "internalType": "string",
              "name": "skillName",
              "type": "string"
            },
            {
              "internalType": "string",
              "name": "cid",
              "type": "string"
            },
            {
              "internalType": "uint256",
              "name": "purchaseDate",
              "type": "uint256"
            },
            {
              "internalType": "address",
              "name": "buyer",
              "type": "address"
            }
          ],
          "internalType": "struct SkillLicenseNFT.License",
          "name": "",
          "type": "tuple"
        }
      ],
      "stateMutability": "view",
      "type": "function"
    },
    {
      "inputs": [
        {
          "internalType": "address",
          "name": "owner_",
          "type": "address"
        }
      ],
      "name": "getOwnedSkills",
      "outputs": [
        {
          "internalType": "uint256[]",
          "name": "",
          "type": "uint256[]"
        }
      ],
      "stateMutability": "view",
      "type": "function"
    },
    {
      "inputs": [
        {
          "internalType": "address",
          "name": "owner_",
          "type": "address"
        },
        {
          "internalType": "uint256",
          "name": "skillId",
          "type": "uint256"
        }
      ],
      "name": "hasLicense",
      "outputs": [
        {
          "internalType": "bool",
          "name": "",
          "type": "bool"
        }
      ],
      "stateMutability": "view",
      "type": "function"
    },
    {
      "inputs": [
        {
          "internalType": "address",
          "name": "owner",
          "type": "address"
        },
        {
          "internalType": "address",
          "name": "operator",
          "type": "address"
        }
      ],
      "name": "isApprovedForAll",
      "outputs": [
        {
          "internalType": "bool",
          "name": "",
          "type": "bool"
        }
      ],
      "stateMutability": "view",
      "type": "function"
    },
    {
      "inputs": [
        {
          "internalType": "uint256",
          "name": "",
          "type": "uint256"
        }
      ],
      "name": "licenses",
      "outputs": [
        {
          "internalType": "uint256",
          "name": "skillId",
          "type": "uint256"
        },
        {
          "internalType": "string",
          "name": "skillName",
          "type": "string"
        },
        {
          "internalType": "string",
          "name": "cid",
          "type": "string"
        },
        {
          "internalType": "uint256",
          "name": "purchaseDate",
          "type": "uint256"
        },
        {
          "internalType": "address",
          "name": "buyer",
          "type": "address"
        }
      ],
      "stateMutability": "view",
      "type": "function"
    },
    {
      "inputs": [
        {
          "internalType": "address",
          "name": "recipient",
          "type": "address"
        },
        {
          "internalType": "uint256",
          "name": "skillId",
          "type": "uint256"
        },
        {
          "internalType": "string",
          "name": "skillName",
          "type": "string"
        },
        {
          "internalType": "string",
          "name": "cid",
          "type": "string"
        }
      ],
      "name": "mintLicense",
      "outputs": [
        {
          "internalType": "uint256",
          "name": "",
          "type": "uint256"
        }
      ],
      "stateMutability": "nonpayable",
      "type": "function"
    },
    {
      "inputs": [],
      "name": "minter",
      "outputs": [
        {
          "internalType": "address",
          "name": "",
          "type": "address"
        }
      ],
      "stateMutability": "view",
      "type": "function"
    },
    {
      "inputs": [],
      "name": "name",
      "outputs": [
        {
          "internalType": "string",
          "name": "",
          "type": "string"
        }
      ],
      "stateMutability": "view",
      "type": "function"
    },
    {
      "inputs": [],
      "name": "owner",
      "outputs": [
        {
          "internalType": "address",
          "name": "",
          "type": "address"
        }
      ],
      "stateMutability": "view",
      "type": "function"
    },
    {
      "inputs": [
        {
          "internalType": "address",
          "name": "",
          "type": "address"
        },
        {
          "internalType": "uint256",
          "name": "",
          "type": "uint256"
        }
      ],
      "name": "ownerLicenses",
      "outputs": [
        {
          "internalType": "uint256",
          "name": "",
          "type": "uint256"
        }
      ],
      "stateMutability": "view",
      "type": "function"
    },
    {
      "inputs": [
        {
          "internalType": "uint256",
          "name": "tokenId",
          "type": "uint256"
        }
      ],
      "name": "ownerOf",
      "outputs": [
        {
          "internalType": "address",
          "name": "",
          "type": "address"
        }
      ],
      "stateMutability": "view",
      "type": "function"
    },
    {
      "inputs": [],
      "name": "renounceOwnership",
      "outputs": [],
      "stateMutability": "nonpayable",
      "type": "function"
    },
    {
      "inputs": [
        {
          "internalType": "address",
          "name": "from",
          "type": "address"
        },
        {
          "internalType": "address",
          "name": "to",
          "type": "address"
        },
        {
          "internalType": "uint256",
          "name": "tokenId",
          "type": "uint256"
        }
      ],
      "name": "safeTransferFrom",
      "outputs": [],
      "stateMutability": "nonpayable",
      "type": "function"
    },
    {
      "inputs": [
        {
          "internalType": "address",
          "name": "from",
          "type": "address"
        },
        {
          "internalType": "address",
          "name": "to",
          "type": "address"
        },
        {
          "internalType": "uint256",
          "name": "tokenId",
          "type": "uint256"
        },
        {
          "internalType": "bytes",
          "name": "data",
          "type": "bytes"
        }
      ],
      "name": "safeTransferFrom",
      "outputs": [],
      "stateMutability": "nonpayable",
      "type": "function"
    },
    {
      "inputs": [
        {
          "internalType": "address",
          "name": "operator",
          "type": "address"
        },
        {
          "internalType": "bool",
          "name": "approved",
          "type": "bool"
        }
      ],
      "name": "setApprovalForAll",
      "outputs": [],
      "stateMutability": "nonpayable",
      "type": "function"
    },
    {
      "inputs": [
        {
          "internalType": "address",
          "name": "newMinter",
          "type": "address"
        }
      ],
      "name": "setMinter",
      "outputs": [],
      "stateMutability": "nonpayable",
      "type": "function"
    },
    {
      "inputs": [
        {
          "internalType": "bytes4",
          "name": "interfaceId",
          "type": "bytes4"
        }
      ],
      "name": "supportsInterface",
      "outputs": [
        {
          "internalType": "bool",
          "name": "",
          "type": "bool"
        }
      ],
      "stateMutability": "view",
      "type": "function"
    },
    {
      "inputs": [],
      "name": "symbol",
      "outputs": [
        {
          "internalType": "string",
          "name": "",
          "type": "string"
        }
      ],
      "stateMutability": "view",
      "type": "function"
    },
    {
      "inputs": [
        {
          "internalType": "uint256",
          "name": "index",
          "type": "uint256"
        }
      ],
      "name": "tokenByIndex",
      "outputs": [
        {
          "internalType": "uint256",
          "name": "",
          "type": "uint256"
        }
      ],
      "stateMutability": "view",
      "type": "function"
    },
    {
      "inputs": [
        {
          "internalType": "address",
          "name": "owner",
          "type": "address"
        },
        {
          "internalType": "uint256",
          "name": "index",
          "type": "uint256"
        }
      ],
      "name": "tokenOfOwnerByIndex",
      "outputs": [
        {
          "internalType": "uint256",
          "name": "",
          "type": "uint256"
        }
      ],
      "stateMutability": "view",
      "type": "function"
    },
    {
      "inputs": [
        {
          "internalType": "uint256",
          "name": "tokenId",
          "type": "uint256"
        }
      ],
      "name": "tokenURI",
      "outputs": [
        {
          "internalType": "string",
          "name": "",
          "type": "string"
        }
      ],
      "stateMutability": "view",
      "type": "function"
    },
    {
      "inputs": [],
      "name": "totalSupply",
      "outputs": [
        {
          "internalType": "uint256",
          "name": "",
          "type": "uint256"
        }
      ],
      "stateMutability": "view",
      "type": "function"
    },
    {
      "inputs": [
        {
          "internalType": "address",
          "name": "from",
          "type": "address"
        },
        {
          "internalType": "address",
          "name": "to",
          "type": "address"
        },
        {
          "internalType": "uint256",
          "name": "tokenId",
          "type": "uint256"
        }
      ],
      "name": "transferFrom",
      "outputs": [],
      "stateMutability": "nonpayable",
      "type": "function"
    },
    {
      "inputs": [
        {
          "internalType": "address",
          "name": "newOwner",
          "type": "address"
        }
      ],
      "name": "transferOwnership",
      "outputs": [],
      "stateMutability": "nonpayable",
      "type": "function"
    }
  ],
  "bytecode": "0x608060405234801562000010575f80fd5b503360405180604001604052806011815260200170536b696c6c636f696e204c6963656e736560781b8152506040518060400160405280600681526020016514d2d313919560d21b815250815f90816200006b9190620001be565b5060016200007a8282620001be565b5050506001600160a01b038116620000ab57604051631e4fbdf760e01b81525f600482015260240160405180910390fd5b620000b681620000cf565b50600f80546001600160a01b031916331790556200028a565b600a80546001600160a01b038381166001600160a01b0319831681179093556040519116919082907f8be0079c531659141344cd1fd0a4f28419497f9722a3daafe3b4186f6b6457e0905f90a35050565b634e487b7160e01b5f52604160045260245ffd5b600181811c908216806200014957607f821691505b6020821081036200016857634e487b7160e01b5f52602260045260245ffd5b50919050565b601f821115620001b957805f5260205f20601f840160051c81016020851015620001955750805b601f840160051c820191505b81811015620001b6575f8155600101620001a1565b50505b505050565b81516001600160401b03811115620001da57620001da62000120565b620001f281620001eb845462000134565b846200016e565b602080601f83116001811462000228575f8415620002105750858301515b5f19600386901b1c1916600185901b17855562000282565b5f85815260208120601f198616915b82811015620002585788860151825594840194600190910190840162000237565b50858210156200027657878501515f19600388901b60f8161c191681555b505060018460011b0185555b505050505050565b611f9580620002985f395ff3fe608060405234801561000f575f80fd5b50600436106101a1575f3560e01c8063656ae304116100f3578063b88d4fde11610093578063e985e9c51161006e578063e985e9c5146103c6578063f2fde38b146103d9578063f3d2cd4d146103ec578063fca3b5aa146103ff575f80fd5b8063b88d4fde14610368578063c87b56dd1461037b578063e3b461d91461038e575f80fd5b80638da5cb5b116100ce5780638da5cb5b1461031c57806395d89b411461032d578063a22cb46514610335578063b2dd121214610348575f80fd5b8063656ae304146102e157806370a0823114610301578063715018a614610314575f80fd5b806318160ddd1161015e5780633379084511610139578063337908451461028457806342842e0e146102a85780634f6ccce7146102bb5780636352211e146102ce575f80fd5b806318160ddd1461025657806323b872dd1461025e5780632f745c5914610271575f80fd5b806301ffc9a7146101a557806306fdde03146101cd57806307546172146101e2578063081812fc1461020d578063095ea7b31461022057806310d4fdb614610235575b5f80fd5b6101b86101b33660046118cd565b610412565b60405190151581526020015b60405180910390f35b6101d5610422565b6040516101c49190611935565b600f546101f5906001600160a01b031681565b6040516001600160a01b0390911681526020016101c4565b6101f561021b366004611947565b6104b1565b61023361022e366004611979565b6104d8565b005b6102486102433660046119e6565b6104e7565b6040519081526020016101c4565b600854610248565b61023361026c366004611a6a565b610705565b61024861027f366004611979565b61078e565b610297610292366004611947565b6107f1565b6040516101c4959493929190611aa3565b6102336102b6366004611a6a565b610935565b6102486102c9366004611947565b610954565b6101f56102dc366004611947565b6109a9565b6102f46102ef366004611af0565b6109b3565b6040516101c49190611b09565b61024861030f366004611af0565b610a1c565b610233610a61565b600a546001600160a01b03166101f5565b6101d5610a74565b610233610343366004611b4c565b610a83565b61035b610356366004611947565b610a8e565b6040516101c49190611b85565b610233610376366004611c07565b610c2f565b6101d5610389366004611947565b610c47565b6101b861039c366004611979565b6001600160a01b03919091165f908152600e60209081526040808320938352929052205460ff1690565b6101b86103d4366004611cdc565b610cb8565b6102336103e7366004611af0565b610ce5565b6102486103fa366004611979565b610d22565b61023361040d366004611af0565b610d4d565b5f61041c82610dff565b92915050565b60605f805461043090611d0d565b80601f016020809104026020016040519081016040528092919081815260200182805461045c90611d0d565b80156104a75780601f1061047e576101008083540402835291602001916104a7565b820191905f5260205f20905b81548152906001019060200180831161048a57829003601f168201915b5050505050905090565b5f6104bb82610e23565b505f828152600460205260409020546001600160a01b031661041c565b6104e3828233610e5b565b5050565b600f545f906001600160a01b031633148061050c5750600a546001600160a01b031633145b6105565760405162461bcd60e51b8152602060048201526016602482015275139bdd08185d5d1a1bdc9a5e9959081d1bc81b5a5b9d60521b60448201526064015b60405180910390fd5b600b8054905f61056583611d59565b9091555050600b546105778882610e68565b6040518060a0016040528088815260200187878080601f0160208091040260200160405190810160405280939291908181526020018383808284375f92019190915250505090825250604080516020601f8801819004810282018101909252868152918101919087908790819084018382808284375f9201829052509385525050426020808501919091526001600160a01b038d16604094850152858352600c81529290912083518155918301516001830191506106359082611db5565b506040820151600282019061064a9082611db5565b5060608201516003820155608090910151600490910180546001600160a01b0319166001600160a01b0392831617905588165f818152600d6020908152604080832080546001818101835591855283852001869055848452600e83528184208c855290925291829020805460ff1916909117905551889083907ff1e8bc7b70b1b38e650d316f1c4f5d0a9ba19831dd28e2a0bc5193ad20f94651906106f2908b908b90611e71565b60405180910390a4979650505050505050565b6001600160a01b03821661072e57604051633250574960e11b81525f600482015260240161054d565b5f61073a838333610e81565b9050836001600160a01b0316816001600160a01b031614610788576040516364283d7b60e01b81526001600160a01b038086166004830152602482018490528216604482015260640161054d565b50505050565b5f61079883610a1c565b82106107c95760405163295f44f760e21b81526001600160a01b03841660048201526024810183905260440161054d565b506001600160a01b03919091165f908152600660209081526040808320938352929052205490565b600c6020525f90815260409020805460018201805491929161081290611d0d565b80601f016020809104026020016040519081016040528092919081815260200182805461083e90611d0d565b80156108895780601f1061086057610100808354040283529160200191610889565b820191905f5260205f20905b81548152906001019060200180831161086c57829003601f168201915b50505050509080600201805461089e90611d0d565b80601f01602080910402602001604051908101604052809291908181526020018280546108ca90611d0d565b80156109155780601f106108ec57610100808354040283529160200191610915565b820191905f5260205f20905b8154815290600101906020018083116108f857829003601f168201915b5050505060038301546004909301549192916001600160a01b0316905085565b61094f83838360405180602001604052805f815250610c2f565b505050565b5f61095e60085490565b82106109865760405163295f44f760e21b81525f60048201526024810183905260440161054d565b6008828154811061099957610999611e9f565b905f5260205f2001549050919050565b5f61041c82610e23565b6001600160a01b0381165f908152600d6020908152604091829020805483518184028101840190945280845260609392830182828015610a1057602002820191905f5260205f20905b8154815260200190600101908083116109fc575b50505050509050919050565b5f6001600160a01b038216610a46576040516322718ad960e21b81525f600482015260240161054d565b506001600160a01b03165f9081526003602052604090205490565b610a69610f1d565b610a725f610f4a565b565b60606001805461043090611d0d565b6104e3338383610f9b565b610ac66040518060a001604052805f815260200160608152602001606081526020015f81526020015f6001600160a01b031681525090565b600c5f8381526020019081526020015f206040518060a00160405290815f8201548152602001600182018054610afb90611d0d565b80601f0160208091040260200160405190810160405280929190818152602001828054610b2790611d0d565b8015610b725780601f10610b4957610100808354040283529160200191610b72565b820191905f5260205f20905b815481529060010190602001808311610b5557829003601f168201915b50505050508152602001600282018054610b8b90611d0d565b80601f0160208091040260200160405190810160405280929190818152602001828054610bb790611d0d565b8015610c025780601f10610bd957610100808354040283529160200191610c02565b820191905f5260205f20905b815481529060010190602001808311610be557829003601f168201915b5050509183525050600382015460208201526004909101546001600160a01b031660409091015292915050565b610c3a848484610705565b6107883385858585611062565b6060610c5282610e23565b505f610c6860408051602081019091525f815290565b90505f815111610c865760405180602001604052805f815250610cb1565b80610c908461118a565b604051602001610ca1929190611eb3565b6040516020818303038152906040525b9392505050565b6001600160a01b039182165f90815260056020908152604080832093909416825291909152205460ff1690565b610ced610f1d565b6001600160a01b038116610d1657604051631e4fbdf760e01b81525f600482015260240161054d565b610d1f81610f4a565b50565b600d602052815f5260405f208181548110610d3b575f80fd5b905f5260205f20015f91509150505481565b610d55610f1d565b6001600160a01b038116610da45760405162461bcd60e51b8152602060048201526016602482015275496e76616c6964206d696e746572206164647265737360501b604482015260640161054d565b600f546040516001600160a01b038084169216907f1cf2de25c5bf439ac0287061c3a0fa69b3b02867d0ccfd2ded34e42577050b73905f90a3600f80546001600160a01b0319166001600160a01b0392909216919091179055565b5f6001600160e01b0319821663780e9d6360e01b148061041c575061041c8261121a565b5f818152600260205260408120546001600160a01b03168061041c57604051637e27328960e01b81526004810184905260240161054d565b61094f8383836001611269565b6104e3828260405180602001604052805f81525061136d565b5f828152600260205260408120546001600160a01b0316801580610eac57506001600160a01b038516155b610f095760405162461bcd60e51b815260206004820152602860248201527f4c6963656e736520697320736f756c626f756e643a207472616e736665727320604482015267191a5cd8589b195960c21b606482015260840161054d565b610f14858585611384565b95945050505050565b600a546001600160a01b03163314610a725760405163118cdaa760e01b815233600482015260240161054d565b600a80546001600160a01b038381166001600160a01b0319831681179093556040519116919082907f8be0079c531659141344cd1fd0a4f28419497f9722a3daafe3b4186f6b6457e0905f90a35050565b6001600160a01b038316610fc45760405163a9fbf51f60e01b81525f600482015260240161054d565b6001600160a01b038216610ff657604051630b61174360e31b81526001600160a01b038316600482015260240161054d565b6001600160a01b038381165f81815260056020908152604080832094871680845294825291829020805460ff191686151590811790915591519182527f17307eab39ab6107e8899845ad3d59bd9653f200f220920489ca2b5937696c31910160405180910390a3505050565b6001600160a01b0383163b1561118357604051630a85bd0160e11b81526001600160a01b0384169063150b7a02906110a4908890889087908790600401611ee1565b6020604051808303815f875af19250505080156110de575060408051601f3d908101601f191682019092526110db91810190611f1d565b60015b611145573d80801561110b576040519150601f19603f3d011682016040523d82523d5f602084013e611110565b606091505b5080515f0361113d57604051633250574960e11b81526001600160a01b038516600482015260240161054d565b805160208201fd5b6001600160e01b03198116630a85bd0160e11b1461118157604051633250574960e11b81526001600160a01b038516600482015260240161054d565b505b5050505050565b60605f61119683611457565b60010190505f8167ffffffffffffffff8111156111b5576111b5611bf3565b6040519080825280601f01601f1916602001820160405280156111df576020820181803683370190505b5090508181016020015b5f19016f181899199a1a9b1b9c1cb0b131b232b360811b600a86061a8153600a85049450846111e957509392505050565b5f6001600160e01b031982166380ac58cd60e01b148061124a57506001600160e01b03198216635b5e139f60e01b145b8061041c57506301ffc9a760e01b6001600160e01b031983161461041c565b808061127d57506001600160a01b03821615155b1561133e575f61128c84610e23565b90506001600160a01b038316158015906112b85750826001600160a01b0316816001600160a01b031614155b80156112cb57506112c98184610cb8565b155b156112f45760405163a9fbf51f60e01b81526001600160a01b038416600482015260240161054d565b811561133c5783856001600160a01b0316826001600160a01b03167f8c5be1e5ebec7d5bd14f71427d1e84f3dd0314c0f7b2291e5b200ac8c7c3b92560405160405180910390a45b505b50505f90815260046020526040902080546001600160a01b0319166001600160a01b0392909216919091179055565b611377838361152e565b61094f335f858585611062565b5f8061139185858561158f565b90506001600160a01b0381166113ed576113e884600880545f838152600960205260408120829055600182018355919091527ff3f7a9fe364faab93b216da50a3214154f22a0a2b415b23a84c8169e8b636ee30155565b611410565b846001600160a01b0316816001600160a01b031614611410576114108185611681565b6001600160a01b03851661142c57611427846116fe565b61144f565b846001600160a01b0316816001600160a01b03161461144f5761144f85856117a5565b949350505050565b5f8072184f03e93ff9f4daa797ed6e38ed64bf6a1f0160401b83106114955772184f03e93ff9f4daa797ed6e38ed64bf6a1f0160401b830492506040015b6d04ee2d6d415b85acef810000000083106114c1576d04ee2d6d415b85acef8100000000830492506020015b662386f26fc1000083106114df57662386f26fc10000830492506010015b6305f5e10083106114f7576305f5e100830492506008015b612710831061150b57612710830492506004015b6064831061151d576064830492506002015b600a831061041c5760010192915050565b6001600160a01b03821661155757604051633250574960e11b81525f600482015260240161054d565b5f61156383835f610e81565b90506001600160a01b0381161561094f576040516339e3563760e11b81525f600482015260240161054d565b5f828152600260205260408120546001600160a01b03908116908316156115bb576115bb8184866117f3565b6001600160a01b038116156115f5576115d65f855f80611269565b6001600160a01b0381165f90815260036020526040902080545f190190555b6001600160a01b03851615611623576001600160a01b0385165f908152600360205260409020805460010190555b5f8481526002602052604080822080546001600160a01b0319166001600160a01b0389811691821790925591518793918516917fddf252ad1be2c89b69c2b068fc378daa952ba7f163c4a11628f55a4df523b3ef91a4949350505050565b5f61168b83610a1c565b5f838152600760209081526040808320546001600160a01b03881684526006909252909120919250908183146116e0575f83815260208281526040808320548584528184208190558352600790915290208290555b5f938452600760209081526040808620869055938552525081205550565b6008545f9061170f90600190611f38565b5f838152600960205260408120546008805493945090928490811061173657611736611e9f565b905f5260205f2001549050806008838154811061175557611755611e9f565b5f91825260208083209091019290925582815260099091526040808220849055858252812055600880548061178c5761178c611f4b565b600190038181905f5260205f20015f9055905550505050565b5f60016117b184610a1c565b6117bb9190611f38565b6001600160a01b039093165f908152600660209081526040808320868452825280832085905593825260079052919091209190915550565b6117fe838383611857565b61094f576001600160a01b03831661182c57604051637e27328960e01b81526004810182905260240161054d565b60405163177e802f60e01b81526001600160a01b03831660048201526024810182905260440161054d565b5f6001600160a01b0383161580159061144f5750826001600160a01b0316846001600160a01b0316148061189057506118908484610cb8565b8061144f5750505f908152600460205260409020546001600160a01b03908116911614919050565b6001600160e01b031981168114610d1f575f80fd5b5f602082840312156118dd575f80fd5b8135610cb1816118b8565b5f5b838110156119025781810151838201526020016118ea565b50505f910152565b5f81518084526119218160208601602086016118e8565b601f01601f19169290920160200192915050565b602081525f610cb1602083018461190a565b5f60208284031215611957575f80fd5b5035919050565b80356001600160a01b0381168114611974575f80fd5b919050565b5f806040838503121561198a575f80fd5b6119938361195e565b946020939093013593505050565b5f8083601f8401126119b1575f80fd5b50813567ffffffffffffffff8111156119c8575f80fd5b6020830191508360208285010111156119df575f80fd5b9250929050565b5f805f805f80608087890312156119fb575f80fd5b611a048761195e565b955060208701359450604087013567ffffffffffffffff80821115611a27575f80fd5b611a338a838b016119a1565b90965094506060890135915080821115611a4b575f80fd5b50611a5889828a016119a1565b979a9699509497509295939492505050565b5f805f60608486031215611a7c575f80fd5b611a858461195e565b9250611a936020850161195e565b9150604084013590509250925092565b85815260a060208201525f611abb60a083018761190a565b8281036040840152611acd818761190a565b606084019590955250506001600160a01b03919091166080909101529392505050565b5f60208284031215611b00575f80fd5b610cb18261195e565b602080825282518282018190525f9190848201906040850190845b81811015611b4057835183529284019291840191600101611b24565b50909695505050505050565b5f8060408385031215611b5d575f80fd5b611b668361195e565b915060208301358015158114611b7a575f80fd5b809150509250929050565b60208152815160208201525f602083015160a06040840152611baa60c084018261190a565b90506040840151601f19848303016060850152611bc7828261190a565b6060860151608086810191909152909501516001600160a01b031660a090940193909352509192915050565b634e487b7160e01b5f52604160045260245ffd5b5f805f8060808587031215611c1a575f80fd5b611c238561195e565b9350611c316020860161195e565b925060408501359150606085013567ffffffffffffffff80821115611c54575f80fd5b818701915087601f830112611c67575f80fd5b813581811115611c7957611c79611bf3565b604051601f8201601f19908116603f01168101908382118183101715611ca157611ca1611bf3565b816040528281528a6020848701011115611cb9575f80fd5b826020860160208301375f60208483010152809550505050505092959194509250565b5f8060408385031215611ced575f80fd5b611cf68361195e565b9150611d046020840161195e565b90509250929050565b600181811c90821680611d2157607f821691505b602082108103611d3f57634e487b7160e01b5f52602260045260245ffd5b50919050565b634e487b7160e01b5f52601160045260245ffd5b5f60018201611d6a57611d6a611d45565b5060010190565b601f82111561094f57805f5260205f20601f840160051c81016020851015611d965750805b601f840160051c820191505b81811015611183575f8155600101611da2565b815167ffffffffffffffff811115611dcf57611dcf611bf3565b611de381611ddd8454611d0d565b84611d71565b602080601f831160018114611e16575f8415611dff5750858301515b5f19600386901b1c1916600185901b178555611181565b5f85815260208120601f198616915b82811015611e4457888601518255948401946001909101908401611e25565b5085821015611e6157878501515f19600388901b60f8161c191681555b5050505050600190811b01905550565b60208152816020820152818360408301375f818301604090810191909152601f909201601f19160101919050565b634e487b7160e01b5f52603260045260245ffd5b5f8351611ec48184602088016118e8565b835190830190611ed88183602088016118e8565b01949350505050565b6001600160a01b03858116825284166020820152604081018390526080606082018190525f90611f139083018461190a565b9695505050505050565b5f60208284031215611f2d575f80fd5b8151610cb1816118b8565b8181038181111561041c5761041c611d45565b634e487b7160e01b5f52603160045260245ffdfea264697066735822122013b16e9c84ef777bb976aafebc7a5a84c1001c5da29d84d86ae7800c3cda855264736f6c63430008180033",
  "linkReferences": {},
  "deployedLinkReferences": {}
}